{
  "contractName": "TokenCrowdSale",
  "abi": [
    {
      "constant": true,
      "inputs": [],
      "name": "_cap",
      "outputs": [
        {
          "name": "",
          "type": "uint256"
        }
      ],
      "payable": false,
      "stateMutability": "view",
      "type": "function"
    },
    {
      "constant": true,
      "inputs": [],
      "name": "rate",
      "outputs": [
        {
          "name": "",
          "type": "uint256"
        }
      ],
      "payable": false,
      "stateMutability": "view",
      "type": "function"
    },
    {
      "constant": true,
      "inputs": [],
      "name": "cap",
      "outputs": [
        {
          "name": "",
          "type": "uint256"
        }
      ],
      "payable": false,
      "stateMutability": "view",
      "type": "function"
    },
    {
      "constant": true,
      "inputs": [],
      "name": "weiRaised",
      "outputs": [
        {
          "name": "",
          "type": "uint256"
        }
      ],
      "payable": false,
      "stateMutability": "view",
      "type": "function"
    },
    {
      "constant": true,
      "inputs": [],
      "name": "capReached",
      "outputs": [
        {
          "name": "",
          "type": "bool"
        }
      ],
      "payable": false,
      "stateMutability": "view",
      "type": "function"
    },
    {
      "constant": true,
      "inputs": [],
      "name": "wallet",
      "outputs": [
        {
          "name": "",
          "type": "address"
        }
      ],
      "payable": false,
      "stateMutability": "view",
      "type": "function"
    },
    {
      "constant": true,
      "inputs": [],
      "name": "_rate",
      "outputs": [
        {
          "name": "",
          "type": "uint256"
        }
      ],
      "payable": false,
      "stateMutability": "view",
      "type": "function"
    },
    {
      "constant": false,
      "inputs": [
        {
          "name": "beneficiary",
          "type": "address"
        }
      ],
      "name": "buyTokens",
      "outputs": [],
      "payable": true,
      "stateMutability": "payable",
      "type": "function"
    },
    {
      "constant": true,
      "inputs": [],
      "name": "token",
      "outputs": [
        {
          "name": "",
          "type": "address"
        }
      ],
      "payable": false,
      "stateMutability": "view",
      "type": "function"
    },
    {
      "inputs": [
        {
          "name": "_wallet",
          "type": "address"
        },
        {
          "name": "token",
          "type": "address"
        }
      ],
      "payable": false,
      "stateMutability": "nonpayable",
      "type": "constructor"
    },
    {
      "payable": true,
      "stateMutability": "payable",
      "type": "fallback"
    },
    {
      "anonymous": false,
      "inputs": [
        {
          "indexed": true,
          "name": "purchaser",
          "type": "address"
        },
        {
          "indexed": true,
          "name": "beneficiary",
          "type": "address"
        },
        {
          "indexed": false,
          "name": "value",
          "type": "uint256"
        },
        {
          "indexed": false,
          "name": "amount",
          "type": "uint256"
        }
      ],
      "name": "TokensPurchased",
      "type": "event"
    }
  ],
  "bytecode": "0x608060405234801561001057600080fd5b50604051604080610cc88339810180604052604081101561003057600080fd5b810190808051906020019092919080519060200190929190505050683635c9adc5dea00000606483836001600081905550600083116100d7576040517f08c379a00000000000000000000000000000000000000000000000000000000081526004018080602001828103825260148152602001807f43726f776473616c653a2072617465206973203000000000000000000000000081525060200191505060405180910390fd5b600073ffffffffffffffffffffffffffffffffffffffff168273ffffffffffffffffffffffffffffffffffffffff16141561015d576040517f08c379a0000000000000000000000000000000000000000000000000000000008152600401808060200182810382526025815260200180610ca36025913960400191505060405180910390fd5b600073ffffffffffffffffffffffffffffffffffffffff168173ffffffffffffffffffffffffffffffffffffffff1614156101e3576040517f08c379a0000000000000000000000000000000000000000000000000000000008152600401808060200182810382526024815260200180610c7f6024913960400191505060405180910390fd5b8260038190555081600260006101000a81548173ffffffffffffffffffffffffffffffffffffffff021916908373ffffffffffffffffffffffffffffffffffffffff16021790555080600160006101000a81548173ffffffffffffffffffffffffffffffffffffffff021916908373ffffffffffffffffffffffffffffffffffffffff160217905550505050600081116102e5576040517f08c379a00000000000000000000000000000000000000000000000000000000081526004018080602001828103825260198152602001807f43617070656443726f776473616c653a2063617020697320300000000000000081525060200191505060405180910390fd5b80600581905550505050610981806102fe6000396000f3fe6080604052600436106100865760003560e01c80634f935945116100595780634f9359451461013d578063521eb2731461016c57806383bebced146101c3578063ec8ac4d8146101ee578063fc0c546a1461023257610086565b8063060cf4e8146100915780632c4e722e146100bc578063355274ea146100e75780634042b66f14610112575b61008f33610289565b005b34801561009d57600080fd5b506100a66103e6565b6040518082815260200191505060405180910390f35b3480156100c857600080fd5b506100d16103f3565b6040518082815260200191505060405180910390f35b3480156100f357600080fd5b506100fc6103fd565b6040518082815260200191505060405180910390f35b34801561011e57600080fd5b50610127610407565b6040518082815260200191505060405180910390f35b34801561014957600080fd5b50610152610411565b604051808215151515815260200191505060405180910390f35b34801561017857600080fd5b50610181610425565b604051808273ffffffffffffffffffffffffffffffffffffffff1673ffffffffffffffffffffffffffffffffffffffff16815260200191505060405180910390f35b3480156101cf57600080fd5b506101d861044f565b6040518082815260200191505060405180910390f35b6102306004803603602081101561020457600080fd5b81019080803573ffffffffffffffffffffffffffffffffffffffff169060200190929190505050610289565b005b34801561023e57600080fd5b50610247610454565b604051808273ffffffffffffffffffffffffffffffffffffffff1673ffffffffffffffffffffffffffffffffffffffff16815260200191505060405180910390f35b6001600080828254019250508190555060008054905060003490506102ae838261047e565b60006102b98261051d565b90506102d08260045461053b90919063ffffffff16565b6004819055506102e084826105c3565b8373ffffffffffffffffffffffffffffffffffffffff163373ffffffffffffffffffffffffffffffffffffffff167f6faf93231a456e552dbc9961f58d9713ee4f2e69d15f1975b050ef0911053a7b8484604051808381526020018281526020019250505060405180910390a361035784836105d1565b61035f6105d5565b6103698483610640565b505060005481146103e2576040517f08c379a000000000000000000000000000000000000000000000000000000000815260040180806020018281038252601f8152602001807f5265656e7472616e637947756172643a207265656e7472616e742063616c6c0081525060200191505060405180910390fd5b5050565b683635c9adc5dea0000081565b6000600354905090565b6000600554905090565b6000600454905090565b600060055461041e610407565b1015905090565b6000600260009054906101000a900473ffffffffffffffffffffffffffffffffffffffff16905090565b606481565b6000600160009054906101000a900473ffffffffffffffffffffffffffffffffffffffff16905090565b6104888282610644565b6005546104a582610497610407565b61053b90919063ffffffff16565b1115610519576040517f08c379a000000000000000000000000000000000000000000000000000000000815260040180806020018281038252601d8152602001807f43617070656443726f776473616c653a2063617020657863656564656400000081525060200191505060405180910390fd5b5050565b60006105346003548361074590919063ffffffff16565b9050919050565b6000808284019050838110156105b9576040517f08c379a000000000000000000000000000000000000000000000000000000000815260040180806020018281038252601b8152602001807f536166654d6174683a206164646974696f6e206f766572666c6f77000000000081525060200191505060405180910390fd5b8091505092915050565b6105cd82826107cb565b5050565b5050565b600260009054906101000a900473ffffffffffffffffffffffffffffffffffffffff1673ffffffffffffffffffffffffffffffffffffffff166108fc349081150290604051600060405180830381858888f1935050505015801561063d573d6000803e3d6000fd5b50565b5050565b600073ffffffffffffffffffffffffffffffffffffffff168273ffffffffffffffffffffffffffffffffffffffff1614156106ca576040517f08c379a000000000000000000000000000000000000000000000000000000000815260040180806020018281038252602a81526020018061092c602a913960400191505060405180910390fd5b6000811415610741576040517f08c379a00000000000000000000000000000000000000000000000000000000081526004018080602001828103825260198152602001807f43726f776473616c653a20776569416d6f756e7420697320300000000000000081525060200191505060405180910390fd5b5050565b60008083141561075857600090506107c5565b600082840290508284828161076957fe5b04146107c0576040517f08c379a000000000000000000000000000000000000000000000000000000000815260040180806020018281038252602181526020018061090b6021913960400191505060405180910390fd5b809150505b92915050565b6107d3610454565b73ffffffffffffffffffffffffffffffffffffffff166340c10f1983836040518363ffffffff1660e01b8152600401808373ffffffffffffffffffffffffffffffffffffffff1673ffffffffffffffffffffffffffffffffffffffff16815260200182815260200192505050602060405180830381600087803b15801561085957600080fd5b505af115801561086d573d6000803e3d6000fd5b505050506040513d602081101561088357600080fd5b8101908080519060200190929190505050610906576040517f08c379a000000000000000000000000000000000000000000000000000000000815260040180806020018281038252601f8152602001807f4d696e74656443726f776473616c653a206d696e74696e67206661696c65640081525060200191505060405180910390fd5b505056fe536166654d6174683a206d756c7469706c69636174696f6e206f766572666c6f7743726f776473616c653a2062656e656669636961727920697320746865207a65726f2061646472657373a165627a7a72305820d17495467d2a3fe1793c72d08bd76febbc5a002d996de04bac93490385148d00002943726f776473616c653a20746f6b656e20697320746865207a65726f206164647265737343726f776473616c653a2077616c6c657420697320746865207a65726f2061646472657373",
  "source": "/**\n * ERC-20 Token 만들기 실습\n*/\n\npragma solidity ^0.5.2;\n\n/* Token */\nimport '@openzeppelin/contracts/token/ERC20/ERC20Detailed.sol';\nimport '@openzeppelin/contracts/token/ERC20/ERC20Mintable.sol';\n\n/* CrowdSale */\nimport '@openzeppelin/contracts/crowdsale/validation/CappedCrowdsale.sol';\nimport '@openzeppelin/contracts/crowdsale/emission/MintedCrowdsale.sol';\n\n\ncontract Token is ERC20Detailed, ERC20Mintable {\n  string public constant _name = \"DongToken\";\n  string public constant _symbol = \"DTT\";\n  uint256 public constant _INITIAL_SUPPLY = 50000 * (10 ** 18);\n\n  constructor() ERC20Detailed(_name, _symbol, 18) public {\n    // _mint(msg.sender, _INITIAL_SUPPLY);\n  }\n}\n\ncontract TokenCrowdSale is CappedCrowdsale, MintedCrowdsale {\n  uint256 public constant _rate = 100;\n  uint256 public constant _cap = 1000000000000000000000;\n  constructor(\n    address payable _wallet,\n    ERC20Mintable token\n  ) public\n    Crowdsale(_rate, _wallet, token)\n    CappedCrowdsale(_cap)\n    {\n\n    }\n}",
  "sourcePath": "/Users/dongw00/git/truffle-token/contracts/Token.sol",
  "compiler": {
    "name": "solc",
    "version": "0.5.8+commit.23d335f2.Emscripten.clang"
  },
  "schemaVersion": "3.0.13",
  "updatedAt": "2019-08-27T09:28:03.387Z",
  "devdoc": {
    "methods": {
      "buyTokens(address)": {
        "details": "low level token purchase ***DO NOT OVERRIDE*** This function has a non-reentrancy guard, so it shouldn't be called by another `nonReentrant` function.",
        "params": {
          "beneficiary": "Recipient of the token purchase"
        }
      },
      "cap()": {
        "return": "the cap of the crowdsale."
      },
      "capReached()": {
        "details": "Checks whether the cap has been reached.",
        "return": "Whether the cap was reached"
      },
      "rate()": {
        "return": "the number of token units a buyer gets per wei."
      },
      "token()": {
        "return": "the token being sold."
      },
      "wallet()": {
        "return": "the address where funds are collected."
      },
      "weiRaised()": {
        "return": "the amount of wei raised."
      }
    }
  },
  "userdoc": {
    "methods": {}
  }
}